{
  "contractName": "BLEUFINFT",
  "abi": [
    {
      "inputs": [],
      "stateMutability": "nonpayable",
      "type": "constructor"
    },
    {
      "anonymous": false,
      "inputs": [
        {
          "indexed": true,
          "internalType": "address",
          "name": "owner",
          "type": "address"
        },
        {
          "indexed": true,
          "internalType": "address",
          "name": "approved",
          "type": "address"
        },
        {
          "indexed": true,
          "internalType": "uint256",
          "name": "tokenId",
          "type": "uint256"
        }
      ],
      "name": "Approval",
      "type": "event"
    },
    {
      "anonymous": false,
      "inputs": [
        {
          "indexed": true,
          "internalType": "address",
          "name": "owner",
          "type": "address"
        },
        {
          "indexed": true,
          "internalType": "address",
          "name": "operator",
          "type": "address"
        },
        {
          "indexed": false,
          "internalType": "bool",
          "name": "approved",
          "type": "bool"
        }
      ],
      "name": "ApprovalForAll",
      "type": "event"
    },
    {
      "anonymous": false,
      "inputs": [
        {
          "indexed": true,
          "internalType": "address",
          "name": "previousOwner",
          "type": "address"
        },
        {
          "indexed": true,
          "internalType": "address",
          "name": "newOwner",
          "type": "address"
        }
      ],
      "name": "OwnershipTransferred",
      "type": "event"
    },
    {
      "anonymous": false,
      "inputs": [
        {
          "indexed": true,
          "internalType": "address",
          "name": "from",
          "type": "address"
        },
        {
          "indexed": true,
          "internalType": "address",
          "name": "to",
          "type": "address"
        },
        {
          "indexed": true,
          "internalType": "uint256",
          "name": "tokenId",
          "type": "uint256"
        }
      ],
      "name": "Transfer",
      "type": "event"
    },
    {
      "inputs": [
        {
          "internalType": "address",
          "name": "to",
          "type": "address"
        },
        {
          "internalType": "uint256",
          "name": "tokenId",
          "type": "uint256"
        }
      ],
      "name": "approve",
      "outputs": [],
      "stateMutability": "nonpayable",
      "type": "function"
    },
    {
      "inputs": [
        {
          "internalType": "address",
          "name": "owner",
          "type": "address"
        }
      ],
      "name": "balanceOf",
      "outputs": [
        {
          "internalType": "uint256",
          "name": "",
          "type": "uint256"
        }
      ],
      "stateMutability": "view",
      "type": "function"
    },
    {
      "inputs": [
        {
          "internalType": "uint256",
          "name": "",
          "type": "uint256"
        }
      ],
      "name": "creators",
      "outputs": [
        {
          "internalType": "address payable",
          "name": "",
          "type": "address"
        }
      ],
      "stateMutability": "view",
      "type": "function"
    },
    {
      "inputs": [
        {
          "internalType": "uint256",
          "name": "tokenId",
          "type": "uint256"
        }
      ],
      "name": "getApproved",
      "outputs": [
        {
          "internalType": "address",
          "name": "",
          "type": "address"
        }
      ],
      "stateMutability": "view",
      "type": "function"
    },
    {
      "inputs": [
        {
          "internalType": "address",
          "name": "owner",
          "type": "address"
        },
        {
          "internalType": "address",
          "name": "operator",
          "type": "address"
        }
      ],
      "name": "isApprovedForAll",
      "outputs": [
        {
          "internalType": "bool",
          "name": "",
          "type": "bool"
        }
      ],
      "stateMutability": "view",
      "type": "function"
    },
    {
      "inputs": [],
      "name": "maximumRoyality",
      "outputs": [
        {
          "internalType": "uint256",
          "name": "",
          "type": "uint256"
        }
      ],
      "stateMutability": "view",
      "type": "function"
    },
    {
      "inputs": [
        {
          "internalType": "uint256",
          "name": "",
          "type": "uint256"
        }
      ],
      "name": "mintedNonce",
      "outputs": [
        {
          "internalType": "bool",
          "name": "",
          "type": "bool"
        }
      ],
      "stateMutability": "view",
      "type": "function"
    },
    {
      "inputs": [],
      "name": "name",
      "outputs": [
        {
          "internalType": "string",
          "name": "",
          "type": "string"
        }
      ],
      "stateMutability": "view",
      "type": "function"
    },
    {
      "inputs": [],
      "name": "nonceCount",
      "outputs": [
        {
          "internalType": "uint256",
          "name": "",
          "type": "uint256"
        }
      ],
      "stateMutability": "view",
      "type": "function"
    },
    {
      "inputs": [],
      "name": "owner",
      "outputs": [
        {
          "internalType": "address",
          "name": "",
          "type": "address"
        }
      ],
      "stateMutability": "view",
      "type": "function"
    },
    {
      "inputs": [
        {
          "internalType": "uint256",
          "name": "tokenId",
          "type": "uint256"
        }
      ],
      "name": "ownerOf",
      "outputs": [
        {
          "internalType": "address",
          "name": "",
          "type": "address"
        }
      ],
      "stateMutability": "view",
      "type": "function"
    },
    {
      "inputs": [],
      "name": "renounceOwnership",
      "outputs": [],
      "stateMutability": "nonpayable",
      "type": "function"
    },
    {
      "inputs": [
        {
          "internalType": "uint256",
          "name": "",
          "type": "uint256"
        }
      ],
      "name": "royalities",
      "outputs": [
        {
          "internalType": "uint256",
          "name": "",
          "type": "uint256"
        }
      ],
      "stateMutability": "view",
      "type": "function"
    },
    {
      "inputs": [
        {
          "internalType": "address",
          "name": "from",
          "type": "address"
        },
        {
          "internalType": "address",
          "name": "to",
          "type": "address"
        },
        {
          "internalType": "uint256",
          "name": "tokenId",
          "type": "uint256"
        }
      ],
      "name": "safeTransferFrom",
      "outputs": [],
      "stateMutability": "nonpayable",
      "type": "function"
    },
    {
      "inputs": [
        {
          "internalType": "address",
          "name": "from",
          "type": "address"
        },
        {
          "internalType": "address",
          "name": "to",
          "type": "address"
        },
        {
          "internalType": "uint256",
          "name": "tokenId",
          "type": "uint256"
        },
        {
          "internalType": "bytes",
          "name": "_data",
          "type": "bytes"
        }
      ],
      "name": "safeTransferFrom",
      "outputs": [],
      "stateMutability": "nonpayable",
      "type": "function"
    },
    {
      "inputs": [
        {
          "internalType": "address",
          "name": "operator",
          "type": "address"
        },
        {
          "internalType": "bool",
          "name": "approved",
          "type": "bool"
        }
      ],
      "name": "setApprovalForAll",
      "outputs": [],
      "stateMutability": "nonpayable",
      "type": "function"
    },
    {
      "inputs": [
        {
          "internalType": "bytes4",
          "name": "interfaceId",
          "type": "bytes4"
        }
      ],
      "name": "supportsInterface",
      "outputs": [
        {
          "internalType": "bool",
          "name": "",
          "type": "bool"
        }
      ],
      "stateMutability": "view",
      "type": "function"
    },
    {
      "inputs": [],
      "name": "symbol",
      "outputs": [
        {
          "internalType": "string",
          "name": "",
          "type": "string"
        }
      ],
      "stateMutability": "view",
      "type": "function"
    },
    {
      "inputs": [
        {
          "internalType": "uint256",
          "name": "index",
          "type": "uint256"
        }
      ],
      "name": "tokenByIndex",
      "outputs": [
        {
          "internalType": "uint256",
          "name": "",
          "type": "uint256"
        }
      ],
      "stateMutability": "view",
      "type": "function"
    },
    {
      "inputs": [
        {
          "internalType": "address",
          "name": "owner",
          "type": "address"
        },
        {
          "internalType": "uint256",
          "name": "index",
          "type": "uint256"
        }
      ],
      "name": "tokenOfOwnerByIndex",
      "outputs": [
        {
          "internalType": "uint256",
          "name": "",
          "type": "uint256"
        }
      ],
      "stateMutability": "view",
      "type": "function"
    },
    {
      "inputs": [
        {
          "internalType": "address",
          "name": "",
          "type": "address"
        },
        {
          "internalType": "uint256",
          "name": "",
          "type": "uint256"
        }
      ],
      "name": "tokensPerCreator",
      "outputs": [
        {
          "internalType": "uint256",
          "name": "",
          "type": "uint256"
        }
      ],
      "stateMutability": "view",
      "type": "function"
    },
    {
      "inputs": [],
      "name": "totalSupply",
      "outputs": [
        {
          "internalType": "uint256",
          "name": "",
          "type": "uint256"
        }
      ],
      "stateMutability": "view",
      "type": "function"
    },
    {
      "inputs": [
        {
          "internalType": "address",
          "name": "from",
          "type": "address"
        },
        {
          "internalType": "address",
          "name": "to",
          "type": "address"
        },
        {
          "internalType": "uint256",
          "name": "tokenId",
          "type": "uint256"
        }
      ],
      "name": "transferFrom",
      "outputs": [],
      "stateMutability": "nonpayable",
      "type": "function"
    },
    {
      "inputs": [
        {
          "internalType": "address",
          "name": "newOwner",
          "type": "address"
        }
      ],
      "name": "transferOwnership",
      "outputs": [],
      "stateMutability": "nonpayable",
      "type": "function"
    },
    {
      "inputs": [
        {
          "internalType": "uint256",
          "name": "_maxroyality",
          "type": "uint256"
        }
      ],
      "name": "setmaximumRoyality",
      "outputs": [],
      "stateMutability": "nonpayable",
      "type": "function"
    },
    {
      "inputs": [
        {
          "internalType": "address payable",
          "name": "creator",
          "type": "address"
        },
        {
          "components": [
            {
              "internalType": "uint256",
              "name": "vNonce",
              "type": "uint256"
            },
            {
              "internalType": "uint256",
              "name": "minPrice",
              "type": "uint256"
            },
            {
              "internalType": "string",
              "name": "tokenUri",
              "type": "string"
            },
            {
              "internalType": "bytes",
              "name": "signature",
              "type": "bytes"
            },
            {
              "internalType": "uint256",
              "name": "royality",
              "type": "uint256"
            }
          ],
          "internalType": "struct BLEUFINFT.NftVoucher",
          "name": "voucher",
          "type": "tuple"
        }
      ],
      "name": "LazyMint",
      "outputs": [
        {
          "internalType": "uint256",
          "name": "",
          "type": "uint256"
        }
      ],
      "stateMutability": "payable",
      "type": "function"
    },
    {
      "inputs": [],
      "name": "getChainID",
      "outputs": [
        {
          "internalType": "uint256",
          "name": "",
          "type": "uint256"
        }
      ],
      "stateMutability": "view",
      "type": "function"
    },
    {
      "inputs": [
        {
          "internalType": "uint256",
          "name": "_nonce",
          "type": "uint256"
        },
        {
          "internalType": "uint256",
          "name": "minPrice",
          "type": "uint256"
        },
        {
          "internalType": "string",
          "name": "tokenUri",
          "type": "string"
        }
      ],
      "name": "getMessageHash",
      "outputs": [
        {
          "internalType": "bytes32",
          "name": "",
          "type": "bytes32"
        }
      ],
      "stateMutability": "pure",
      "type": "function"
    },
    {
      "inputs": [
        {
          "internalType": "bytes32",
          "name": "_messageHash",
          "type": "bytes32"
        }
      ],
      "name": "getEthSignedMessageHash",
      "outputs": [
        {
          "internalType": "bytes32",
          "name": "",
          "type": "bytes32"
        }
      ],
      "stateMutability": "pure",
      "type": "function"
    },
    {
      "inputs": [
        {
          "internalType": "bytes32",
          "name": "_ethSignedMessageHash",
          "type": "bytes32"
        },
        {
          "internalType": "bytes",
          "name": "_signature",
          "type": "bytes"
        }
      ],
      "name": "recoverSigner",
      "outputs": [
        {
          "internalType": "address",
          "name": "",
          "type": "address"
        }
      ],
      "stateMutability": "pure",
      "type": "function"
    },
    {
      "inputs": [
        {
          "internalType": "uint256",
          "name": "tokenId",
          "type": "uint256"
        }
      ],
      "name": "tokenURI",
      "outputs": [
        {
          "internalType": "string",
          "name": "",
          "type": "string"
        }
      ],
      "stateMutability": "view",
      "type": "function"
    },
    {
      "inputs": [
        {
          "internalType": "uint256",
          "name": "tokenId",
          "type": "uint256"
        }
      ],
      "name": "burn",
      "outputs": [],
      "stateMutability": "nonpayable",
      "type": "function"
    },
    {
      "inputs": [
        {
          "internalType": "uint256",
          "name": "_id",
          "type": "uint256"
        },
        {
          "internalType": "address",
          "name": "_to",
          "type": "address"
        },
        {
          "internalType": "uint256",
          "name": "_royality",
          "type": "uint256"
        },
        {
          "internalType": "string",
          "name": "_tokenURI",
          "type": "string"
        }
      ],
      "name": "mint",
      "outputs": [],
      "stateMutability": "nonpayable",
      "type": "function"
    },
    {
      "inputs": [
        {
          "internalType": "uint256[]",
          "name": "_ids",
          "type": "uint256[]"
        },
        {
          "internalType": "address[]",
          "name": "_tos",
          "type": "address[]"
        },
        {
          "internalType": "uint256[]",
          "name": "_royality",
          "type": "uint256[]"
        },
        {
          "internalType": "string[]",
          "name": "_newTokenURIs",
          "type": "string[]"
        }
      ],
      "name": "mintAll",
      "outputs": [],
      "stateMutability": "nonpayable",
      "type": "function"
    }
  ],
  "bytecode": "0x6101406040523480156200001257600080fd5b506040518060400160405280600f81526020017f4c617a794e46542d566f756368657200000000000000000000000000000000008152506040518060400160405280600181526020017f31000000000000000000000000000000000000000000000000000000000000008152506040518060400160405280600a81526020017f424c45554649204e4654000000000000000000000000000000000000000000008152506040518060400160405280600981526020017f424c455546494e46540000000000000000000000000000000000000000000000815250816000908051906020019062000103929190620003d7565b5080600190805190602001906200011c929190620003d7565b5050506200013f620001336200020a60201b60201c565b6200021260201b60201c565b60008280519060200120905060008280519060200120905060007f8b73c3c69bb8fe3d512ecc4cf759cc79239f7b179b0ffacaa9a75d522b39400f90508260e081815250508161010081815250504660a08181525050620001a8818484620002d860201b60201c565b608081815250503073ffffffffffffffffffffffffffffffffffffffff1660c08173ffffffffffffffffffffffffffffffffffffffff16815250508061012081815250505050505050620002046103e86200031460201b60201c565b62000647565b600033905090565b6000600a60009054906101000a900473ffffffffffffffffffffffffffffffffffffffff16905081600a60006101000a81548173ffffffffffffffffffffffffffffffffffffffff021916908373ffffffffffffffffffffffffffffffffffffffff1602179055508173ffffffffffffffffffffffffffffffffffffffff168173ffffffffffffffffffffffffffffffffffffffff167f8be0079c531659141344cd1fd0a4f28419497f9722a3daafe3b4186f6b6457e060405160405180910390a35050565b60008383834630604051602001620002f595949392919062000502565b6040516020818303038152906040528051906020012090509392505050565b620003246200020a60201b60201c565b73ffffffffffffffffffffffffffffffffffffffff166200034a620003ad60201b60201c565b73ffffffffffffffffffffffffffffffffffffffff1614620003a3576040517f08c379a00000000000000000000000000000000000000000000000000000000081526004016200039a90620005c0565b60405180910390fd5b8060128190555050565b6000600a60009054906101000a900473ffffffffffffffffffffffffffffffffffffffff16905090565b828054620003e59062000611565b90600052602060002090601f01602090048101928262000409576000855562000455565b82601f106200042457805160ff191683800117855562000455565b8280016001018555821562000455579182015b828111156200045457825182559160200191906001019062000437565b5b50905062000464919062000468565b5090565b5b808211156200048357600081600090555060010162000469565b5090565b6000819050919050565b6200049c8162000487565b82525050565b6000819050919050565b620004b781620004a2565b82525050565b600073ffffffffffffffffffffffffffffffffffffffff82169050919050565b6000620004ea82620004bd565b9050919050565b620004fc81620004dd565b82525050565b600060a08201905062000519600083018862000491565b62000528602083018762000491565b62000537604083018662000491565b620005466060830185620004ac565b620005556080830184620004f1565b9695505050505050565b600082825260208201905092915050565b7f4f776e61626c653a2063616c6c6572206973206e6f7420746865206f776e6572600082015250565b6000620005a86020836200055f565b9150620005b58262000570565b602082019050919050565b60006020820190508181036000830152620005db8162000599565b9050919050565b7f4e487b7100000000000000000000000000000000000000000000000000000000600052602260045260246000fd5b600060028204905060018216806200062a57607f821691505b60208210811415620006415762000640620005e2565b5b50919050565b60805160a05160c05160e0516101005161012051615480620006856000396000505060005050600050506000505060005050600050506154806000f3fe6080604052600436106101f95760003560e01c8063861ca6a51161010d578063b5004f01116100a0578063cd53d08e1161006f578063cd53d08e14610794578063d98a17ed146107d1578063e985e9c5146107fc578063f2fde38b14610839578063fa54080114610862576101f9565b8063b5004f01146106c8578063b88d4fde14610705578063b918866b1461072e578063c87b56dd14610757576101f9565b80639d519338116100dc5780639d519338146105fc578063a027a1a714610639578063a22cb46514610676578063af131f501461069f576101f9565b8063861ca6a5146105395780638da5cb5b1461056957806395d89b411461059457806397aba7f9146105bf576101f9565b80632f745c5911610190578063564b81ef1161015f578063564b81ef146104405780636352211e1461046b57806370a08231146104a8578063715018a6146104e5578063737c7600146104fc576101f9565b80632f745c591461037457806342842e0e146103b157806342966c68146103da5780634f6ccce714610403576101f9565b8063095ea7b3116101cc578063095ea7b3146102ce5780630eda3b27146102f757806318160ddd1461032057806323b872dd1461034b576101f9565b806301ffc9a7146101fe57806306fdde031461023b57806307f34a9714610266578063081812fc14610291575b600080fd5b34801561020a57600080fd5b50610225600480360381019061022091906133f2565b61089f565b604051610232919061343a565b60405180910390f35b34801561024757600080fd5b50610250610919565b60405161025d91906134ee565b60405180910390f35b34801561027257600080fd5b5061027b6109ab565b6040516102889190613529565b60405180910390f35b34801561029d57600080fd5b506102b860048036038101906102b39190613570565b6109b1565b6040516102c591906135de565b60405180910390f35b3480156102da57600080fd5b506102f560048036038101906102f09190613625565b610a36565b005b34801561030357600080fd5b5061031e60048036038101906103199190613a06565b610b4e565b005b34801561032c57600080fd5b50610335610eb7565b6040516103429190613529565b60405180910390f35b34801561035757600080fd5b50610372600480360381019061036d9190613add565b610ec4565b005b34801561038057600080fd5b5061039b60048036038101906103969190613625565b610f24565b6040516103a89190613529565b60405180910390f35b3480156103bd57600080fd5b506103d860048036038101906103d39190613add565b610fc9565b005b3480156103e657600080fd5b5061040160048036038101906103fc9190613570565b610fe9565b005b34801561040f57600080fd5b5061042a60048036038101906104259190613570565b61106b565b6040516104379190613529565b60405180910390f35b34801561044c57600080fd5b506104556110dc565b6040516104629190613529565b60405180910390f35b34801561047757600080fd5b50610492600480360381019061048d9190613570565b6110e9565b60405161049f91906135de565b60405180910390f35b3480156104b457600080fd5b506104cf60048036038101906104ca9190613b30565b61119b565b6040516104dc9190613529565b60405180910390f35b3480156104f157600080fd5b506104fa611253565b005b34801561050857600080fd5b50610523600480360381019061051e9190613625565b6112db565b6040516105309190613529565b60405180910390f35b610553600480360381019061054e9190613bbf565b61130c565b6040516105609190613529565b60405180910390f35b34801561057557600080fd5b5061057e6116e4565b60405161058b91906135de565b60405180910390f35b3480156105a057600080fd5b506105a961170e565b6040516105b691906134ee565b60405180910390f35b3480156105cb57600080fd5b506105e660048036038101906105e19190613cf2565b6117a0565b6040516105f391906135de565b60405180910390f35b34801561060857600080fd5b50610623600480360381019061061e9190613d4e565b61180f565b6040516106309190613dcc565b60405180910390f35b34801561064557600080fd5b50610660600480360381019061065b9190613570565b611845565b60405161066d919061343a565b60405180910390f35b34801561068257600080fd5b5061069d60048036038101906106989190613e13565b611865565b005b3480156106ab57600080fd5b506106c660048036038101906106c19190613e53565b61187b565b005b3480156106d457600080fd5b506106ef60048036038101906106ea9190613570565b6118db565b6040516106fc9190613529565b60405180910390f35b34801561071157600080fd5b5061072c60048036038101906107279190613ed6565b6118f3565b005b34801561073a57600080fd5b5061075560048036038101906107509190613570565b611955565b005b34801561076357600080fd5b5061077e60048036038101906107799190613570565b6119db565b60405161078b91906134ee565b60405180910390f35b3480156107a057600080fd5b506107bb60048036038101906107b69190613570565b611b2d565b6040516107c89190613f68565b60405180910390f35b3480156107dd57600080fd5b506107e6611b60565b6040516107f39190613529565b60405180910390f35b34801561080857600080fd5b50610823600480360381019061081e9190613f83565b611b66565b604051610830919061343a565b60405180910390f35b34801561084557600080fd5b50610860600480360381019061085b9190613b30565b611bfa565b005b34801561086e57600080fd5b5061088960048036038101906108849190613fc3565b611cf2565b6040516108969190613dcc565b60405180910390f35b60007f780e9d63000000000000000000000000000000000000000000000000000000007bffffffffffffffffffffffffffffffffffffffffffffffffffffffff1916827bffffffffffffffffffffffffffffffffffffffffffffffffffffffff19161480610912575061091182611d22565b5b9050919050565b6060600080546109289061401f565b80601f01602080910402602001604051908101604052809291908181526020018280546109549061401f565b80156109a15780601f10610976576101008083540402835291602001916109a1565b820191906000526020600020905b81548152906001019060200180831161098457829003601f168201915b5050505050905090565b600c5481565b60006109bc82611e04565b6109fb576040517f08c379a00000000000000000000000000000000000000000000000000000000081526004016109f2906140c3565b60405180910390fd5b6004600083815260200190815260200160002060009054906101000a900473ffffffffffffffffffffffffffffffffffffffff169050919050565b6000610a41826110e9565b90508073ffffffffffffffffffffffffffffffffffffffff168373ffffffffffffffffffffffffffffffffffffffff161415610ab2576040517f08c379a0000000000000000000000000000000000000000000000000000000008152600401610aa990614155565b60405180910390fd5b8073ffffffffffffffffffffffffffffffffffffffff16610ad1611e70565b73ffffffffffffffffffffffffffffffffffffffff161480610b005750610aff81610afa611e70565b611b66565b5b610b3f576040517f08c379a0000000000000000000000000000000000000000000000000000000008152600401610b36906141e7565b60405180910390fd5b610b498383611e78565b505050565b610b56611e70565b73ffffffffffffffffffffffffffffffffffffffff16610b746116e4565b73ffffffffffffffffffffffffffffffffffffffff1614610bca576040517f08c379a0000000000000000000000000000000000000000000000000000000008152600401610bc190614253565b60405180910390fd5b8251845114610c0e576040517f08c379a0000000000000000000000000000000000000000000000000000000008152600401610c05906142e5565b60405180910390fd5b8051845114610c52576040517f08c379a0000000000000000000000000000000000000000000000000000000008152600401610c4990614377565b60405180910390fd5b60005b8451811015610eb057601254838281518110610c7457610c73614397565b5b60200260200101511115610cbd576040517f08c379a0000000000000000000000000000000000000000000000000000000008152600401610cb490614412565b60405180910390fd5b610d31858281518110610cd357610cd2614397565b5b6020026020010151858381518110610cee57610ced614397565b5b6020026020010151858481518110610d0957610d08614397565b5b6020026020010151858581518110610d2457610d23614397565b5b602002602001015161187b565b828181518110610d4457610d43614397565b5b6020026020010151600e6000878481518110610d6357610d62614397565b5b6020026020010151815260200190815260200160002081905550838181518110610d9057610d8f614397565b5b6020026020010151600f6000878481518110610daf57610dae614397565b5b6020026020010151815260200190815260200160002060006101000a81548173ffffffffffffffffffffffffffffffffffffffff021916908373ffffffffffffffffffffffffffffffffffffffff16021790555060106000858381518110610e1a57610e19614397565b5b602002602001015173ffffffffffffffffffffffffffffffffffffffff1673ffffffffffffffffffffffffffffffffffffffff168152602001908152602001600020858281518110610e6f57610e6e614397565b5b602002602001015190806001815401808255809150506001900390600052602060002001600090919091909150558080610ea890614461565b915050610c55565b5050505050565b6000600880549050905090565b610ed5610ecf611e70565b82611f31565b610f14576040517f08c379a0000000000000000000000000000000000000000000000000000000008152600401610f0b9061451c565b60405180910390fd5b610f1f83838361200f565b505050565b6000610f2f8361119b565b8210610f70576040517f08c379a0000000000000000000000000000000000000000000000000000000008152600401610f67906145ae565b60405180910390fd5b600660008473ffffffffffffffffffffffffffffffffffffffff1673ffffffffffffffffffffffffffffffffffffffff168152602001908152602001600020600083815260200190815260200160002054905092915050565b610fe4838383604051806020016040528060008152506118f3565b505050565b3373ffffffffffffffffffffffffffffffffffffffff16611009826110e9565b73ffffffffffffffffffffffffffffffffffffffff161461105f576040517f08c379a00000000000000000000000000000000000000000000000000000000081526004016110569061461a565b60405180910390fd5b6110688161226b565b50565b6000611075610eb7565b82106110b6576040517f08c379a00000000000000000000000000000000000000000000000000000000081526004016110ad906146ac565b60405180910390fd5b600882815481106110ca576110c9614397565b5b90600052602060002001549050919050565b6000804690508091505090565b6000806002600084815260200190815260200160002060009054906101000a900473ffffffffffffffffffffffffffffffffffffffff169050600073ffffffffffffffffffffffffffffffffffffffff168173ffffffffffffffffffffffffffffffffffffffff161415611192576040517f08c379a00000000000000000000000000000000000000000000000000000000081526004016111899061473e565b60405180910390fd5b80915050919050565b60008073ffffffffffffffffffffffffffffffffffffffff168273ffffffffffffffffffffffffffffffffffffffff16141561120c576040517f08c379a0000000000000000000000000000000000000000000000000000000008152600401611203906147d0565b60405180910390fd5b600360008373ffffffffffffffffffffffffffffffffffffffff1673ffffffffffffffffffffffffffffffffffffffff168152602001908152602001600020549050919050565b61125b611e70565b73ffffffffffffffffffffffffffffffffffffffff166112796116e4565b73ffffffffffffffffffffffffffffffffffffffff16146112cf576040517f08c379a00000000000000000000000000000000000000000000000000000000081526004016112c690614253565b60405180910390fd5b6112d960006122be565b565b601060205281600052604060002081815481106112f757600080fd5b90600052602060002001600091509150505481565b6000801515600b60008460000135815260200190815260200160002060009054906101000a900460ff16151514611378576040517f08c379a000000000000000000000000000000000000000000000000000000000815260040161136f9061483c565b60405180910390fd5b60006113df83600001358460200135858060400190611397919061486b565b8080601f016020809104026020016040519081016040528093929190818152602001838380828437600081840152601f19601f8201169050808301925050505050505061180f565b905060006113ec82611cf2565b9050600061144c8286806060019061140491906148ce565b8080601f016020809104026020016040519081016040528093929190818152602001838380828437600081840152601f19601f820116905080830192505050505050506117a0565b90506001600d5461145d9190614931565b600d8190555085600f6000600d54815260200190815260200160002060006101000a81548173ffffffffffffffffffffffffffffffffffffffff021916908373ffffffffffffffffffffffffffffffffffffffff1602179055508073ffffffffffffffffffffffffffffffffffffffff168673ffffffffffffffffffffffffffffffffffffffff1614611525576040517f08c379a000000000000000000000000000000000000000000000000000000000815260040161151c906149f9565b60405180910390fd5b846020013534101561156c576040517f08c379a000000000000000000000000000000000000000000000000000000000815260040161156390614a65565b60405180910390fd5b601254856080013511156115b5576040517f08c379a00000000000000000000000000000000000000000000000000000000081526004016115ac90614412565b60405180910390fd5b6115c181600d54612384565b8460800135600e6000600d5481526020019081526020016000208190555061163d600d548680604001906115f5919061486b565b8080601f016020809104026020016040519081016040528093929190818152602001838380828437600081840152601f19601f820116905080830192505050505050506123a2565b61164a8133600d5461200f565b8573ffffffffffffffffffffffffffffffffffffffff166108fc349081150290604051600060405180830381858888f19350505050158015611690573d6000803e3d6000fd5b506001600b60008760000135815260200190815260200160002060006101000a81548160ff0219169083151502179055506001600c546116d09190614931565b600c81905550600d54935050505092915050565b6000600a60009054906101000a900473ffffffffffffffffffffffffffffffffffffffff16905090565b60606001805461171d9061401f565b80601f01602080910402602001604051908101604052809291908181526020018280546117499061401f565b80156117965780601f1061176b57610100808354040283529160200191611796565b820191906000526020600020905b81548152906001019060200180831161177957829003601f168201915b5050505050905090565b6000806000806117af85612416565b925092509250600186828585604051600081526020016040526040516117d89493929190614aa1565b6020604051602081039080840390855afa1580156117fa573d6000803e3d6000fd5b50505060206040510351935050505092915050565b600083838360405160200161182693929190614b43565b6040516020818303038152906040528051906020012090509392505050565b600b6020528060005260406000206000915054906101000a900460ff1681565b611877611870611e70565b838361247e565b5050565b6012548211156118c0576040517f08c379a00000000000000000000000000000000000000000000000000000000081526004016118b790614412565b60405180910390fd5b6118cb8385846125eb565b6118d584826123a2565b50505050565b600e6020528060005260406000206000915090505481565b6119046118fe611e70565b83611f31565b611943576040517f08c379a000000000000000000000000000000000000000000000000000000000815260040161193a9061451c565b60405180910390fd5b61194f848484846126ca565b50505050565b61195d611e70565b73ffffffffffffffffffffffffffffffffffffffff1661197b6116e4565b73ffffffffffffffffffffffffffffffffffffffff16146119d1576040517f08c379a00000000000000000000000000000000000000000000000000000000081526004016119c890614253565b60405180910390fd5b8060128190555050565b60606119e682611e04565b611a25576040517f08c379a0000000000000000000000000000000000000000000000000000000008152600401611a1c90614bee565b60405180910390fd5b6000601160008481526020019081526020016000208054611a459061401f565b80601f0160208091040260200160405190810160405280929190818152602001828054611a719061401f565b8015611abe5780601f10611a9357610100808354040283529160200191611abe565b820191906000526020600020905b815481529060010190602001808311611aa157829003601f168201915b505050505090506000611acf612726565b9050600081511415611ae5578192505050611b28565b600082511115611b1a578082604051602001611b02929190614c0e565b60405160208183030381529060405292505050611b28565b611b238461273d565b925050505b919050565b600f6020528060005260406000206000915054906101000a900473ffffffffffffffffffffffffffffffffffffffff1681565b60125481565b6000600560008473ffffffffffffffffffffffffffffffffffffffff1673ffffffffffffffffffffffffffffffffffffffff16815260200190815260200160002060008373ffffffffffffffffffffffffffffffffffffffff1673ffffffffffffffffffffffffffffffffffffffff16815260200190815260200160002060009054906101000a900460ff16905092915050565b611c02611e70565b73ffffffffffffffffffffffffffffffffffffffff16611c206116e4565b73ffffffffffffffffffffffffffffffffffffffff1614611c76576040517f08c379a0000000000000000000000000000000000000000000000000000000008152600401611c6d90614253565b60405180910390fd5b600073ffffffffffffffffffffffffffffffffffffffff168173ffffffffffffffffffffffffffffffffffffffff161415611ce6576040517f08c379a0000000000000000000000000000000000000000000000000000000008152600401611cdd90614ca4565b60405180910390fd5b611cef816122be565b50565b600081604051602001611d059190614d31565b604051602081830303815290604052805190602001209050919050565b60007f80ac58cd000000000000000000000000000000000000000000000000000000007bffffffffffffffffffffffffffffffffffffffffffffffffffffffff1916827bffffffffffffffffffffffffffffffffffffffffffffffffffffffff19161480611ded57507f5b5e139f000000000000000000000000000000000000000000000000000000007bffffffffffffffffffffffffffffffffffffffffffffffffffffffff1916827bffffffffffffffffffffffffffffffffffffffffffffffffffffffff1916145b80611dfd5750611dfc826127e4565b5b9050919050565b60008073ffffffffffffffffffffffffffffffffffffffff166002600084815260200190815260200160002060009054906101000a900473ffffffffffffffffffffffffffffffffffffffff1673ffffffffffffffffffffffffffffffffffffffff1614159050919050565b600033905090565b816004600083815260200190815260200160002060006101000a81548173ffffffffffffffffffffffffffffffffffffffff021916908373ffffffffffffffffffffffffffffffffffffffff160217905550808273ffffffffffffffffffffffffffffffffffffffff16611eeb836110e9565b73ffffffffffffffffffffffffffffffffffffffff167f8c5be1e5ebec7d5bd14f71427d1e84f3dd0314c0f7b2291e5b200ac8c7c3b92560405160405180910390a45050565b6000611f3c82611e04565b611f7b576040517f08c379a0000000000000000000000000000000000000000000000000000000008152600401611f7290614dc9565b60405180910390fd5b6000611f86836110e9565b90508073ffffffffffffffffffffffffffffffffffffffff168473ffffffffffffffffffffffffffffffffffffffff161480611ff557508373ffffffffffffffffffffffffffffffffffffffff16611fdd846109b1565b73ffffffffffffffffffffffffffffffffffffffff16145b8061200657506120058185611b66565b5b91505092915050565b8273ffffffffffffffffffffffffffffffffffffffff1661202f826110e9565b73ffffffffffffffffffffffffffffffffffffffff1614612085576040517f08c379a000000000000000000000000000000000000000000000000000000000815260040161207c90614e5b565b60405180910390fd5b600073ffffffffffffffffffffffffffffffffffffffff168273ffffffffffffffffffffffffffffffffffffffff1614156120f5576040517f08c379a00000000000000000000000000000000000000000000000000000000081526004016120ec90614eed565b60405180910390fd5b61210083838361284e565b61210b600082611e78565b6001600360008573ffffffffffffffffffffffffffffffffffffffff1673ffffffffffffffffffffffffffffffffffffffff168152602001908152602001600020600082825461215b9190614f0d565b925050819055506001600360008473ffffffffffffffffffffffffffffffffffffffff1673ffffffffffffffffffffffffffffffffffffffff16815260200190815260200160002060008282546121b29190614931565b92505081905550816002600083815260200190815260200160002060006101000a81548173ffffffffffffffffffffffffffffffffffffffff021916908373ffffffffffffffffffffffffffffffffffffffff160217905550808273ffffffffffffffffffffffffffffffffffffffff168473ffffffffffffffffffffffffffffffffffffffff167fddf252ad1be2c89b69c2b068fc378daa952ba7f163c4a11628f55a4df523b3ef60405160405180910390a4505050565b61227481612962565b60006011600083815260200190815260200160002080546122949061401f565b9050146122bb576011600082815260200190815260200160002060006122ba91906132a3565b5b50565b6000600a60009054906101000a900473ffffffffffffffffffffffffffffffffffffffff16905081600a60006101000a81548173ffffffffffffffffffffffffffffffffffffffff021916908373ffffffffffffffffffffffffffffffffffffffff1602179055508173ffffffffffffffffffffffffffffffffffffffff168173ffffffffffffffffffffffffffffffffffffffff167f8be0079c531659141344cd1fd0a4f28419497f9722a3daafe3b4186f6b6457e060405160405180910390a35050565b61239e828260405180602001604052806000815250612a73565b5050565b6123ab82611e04565b6123ea576040517f08c379a00000000000000000000000000000000000000000000000000000000081526004016123e190614fb3565b60405180910390fd5b806011600084815260200190815260200160002090805190602001906124119291906132e3565b505050565b6000806000604184511461245f576040517f08c379a00000000000000000000000000000000000000000000000000000000081526004016124569061501f565b60405180910390fd5b6020840151925060408401519150606084015160001a90509193909250565b8173ffffffffffffffffffffffffffffffffffffffff168373ffffffffffffffffffffffffffffffffffffffff1614156124ed576040517f08c379a00000000000000000000000000000000000000000000000000000000081526004016124e49061508b565b60405180910390fd5b80600560008573ffffffffffffffffffffffffffffffffffffffff1673ffffffffffffffffffffffffffffffffffffffff16815260200190815260200160002060008473ffffffffffffffffffffffffffffffffffffffff1673ffffffffffffffffffffffffffffffffffffffff16815260200190815260200160002060006101000a81548160ff0219169083151502179055508173ffffffffffffffffffffffffffffffffffffffff168373ffffffffffffffffffffffffffffffffffffffff167f17307eab39ab6107e8899845ad3d59bd9653f200f220920489ca2b5937696c31836040516125de919061343a565b60405180910390a3505050565b6125f58383612384565b80600e60008481526020019081526020016000208190555033600f600084815260200190815260200160002060006101000a81548173ffffffffffffffffffffffffffffffffffffffff021916908373ffffffffffffffffffffffffffffffffffffffff160217905550601060003373ffffffffffffffffffffffffffffffffffffffff1673ffffffffffffffffffffffffffffffffffffffff168152602001908152602001600020829080600181540180825580915050600190039060005260206000200160009091909190915055505050565b6126d584848461200f565b6126e184848484612ace565b612720576040517f08c379a00000000000000000000000000000000000000000000000000000000081526004016127179061511d565b60405180910390fd5b50505050565b606060405180602001604052806000815250905090565b606061274882611e04565b612787576040517f08c379a000000000000000000000000000000000000000000000000000000000815260040161277e906151af565b60405180910390fd5b6000612791612726565b905060008151116127b157604051806020016040528060008152506127dc565b806127bb84612c56565b6040516020016127cc929190614c0e565b6040516020818303038152906040525b915050919050565b60007f01ffc9a7000000000000000000000000000000000000000000000000000000007bffffffffffffffffffffffffffffffffffffffffffffffffffffffff1916827bffffffffffffffffffffffffffffffffffffffffffffffffffffffff1916149050919050565b612859838383612db7565b600073ffffffffffffffffffffffffffffffffffffffff168373ffffffffffffffffffffffffffffffffffffffff16141561289c5761289781612dbc565b6128db565b8173ffffffffffffffffffffffffffffffffffffffff168373ffffffffffffffffffffffffffffffffffffffff16146128da576128d98382612e05565b5b5b600073ffffffffffffffffffffffffffffffffffffffff168273ffffffffffffffffffffffffffffffffffffffff16141561291e5761291981612f72565b61295d565b8273ffffffffffffffffffffffffffffffffffffffff168273ffffffffffffffffffffffffffffffffffffffff161461295c5761295b8282613043565b5b5b505050565b600061296d826110e9565b905061297b8160008461284e565b612986600083611e78565b6001600360008373ffffffffffffffffffffffffffffffffffffffff1673ffffffffffffffffffffffffffffffffffffffff16815260200190815260200160002060008282546129d69190614f0d565b925050819055506002600083815260200190815260200160002060006101000a81549073ffffffffffffffffffffffffffffffffffffffff021916905581600073ffffffffffffffffffffffffffffffffffffffff168273ffffffffffffffffffffffffffffffffffffffff167fddf252ad1be2c89b69c2b068fc378daa952ba7f163c4a11628f55a4df523b3ef60405160405180910390a45050565b612a7d83836130c2565b612a8a6000848484612ace565b612ac9576040517f08c379a0000000000000000000000000000000000000000000000000000000008152600401612ac09061511d565b60405180910390fd5b505050565b6000612aef8473ffffffffffffffffffffffffffffffffffffffff16613290565b15612c49578373ffffffffffffffffffffffffffffffffffffffff1663150b7a02612b18611e70565b8786866040518563ffffffff1660e01b8152600401612b3a9493929190615224565b6020604051808303816000875af1925050508015612b7657506040513d601f19601f82011682018060405250810190612b739190615285565b60015b612bf9573d8060008114612ba6576040519150601f19603f3d011682016040523d82523d6000602084013e612bab565b606091505b50600081511415612bf1576040517f08c379a0000000000000000000000000000000000000000000000000000000008152600401612be89061511d565b60405180910390fd5b805181602001fd5b63150b7a0260e01b7bffffffffffffffffffffffffffffffffffffffffffffffffffffffff1916817bffffffffffffffffffffffffffffffffffffffffffffffffffffffff191614915050612c4e565b600190505b949350505050565b60606000821415612c9e576040518060400160405280600181526020017f30000000000000000000000000000000000000000000000000000000000000008152509050612db2565b600082905060005b60008214612cd0578080612cb990614461565b915050600a82612cc991906152e1565b9150612ca6565b60008167ffffffffffffffff811115612cec57612ceb61366a565b5b6040519080825280601f01601f191660200182016040528015612d1e5781602001600182028036833780820191505090505b5090505b60008514612dab57600182612d379190614f0d565b9150600a85612d469190615312565b6030612d529190614931565b60f81b818381518110612d6857612d67614397565b5b60200101907effffffffffffffffffffffffffffffffffffffffffffffffffffffffffffff1916908160001a905350600a85612da491906152e1565b9450612d22565b8093505050505b919050565b505050565b6008805490506009600083815260200190815260200160002081905550600881908060018154018082558091505060019003906000526020600020016000909190919091505550565b60006001612e128461119b565b612e1c9190614f0d565b9050600060076000848152602001908152602001600020549050818114612f01576000600660008673ffffffffffffffffffffffffffffffffffffffff1673ffffffffffffffffffffffffffffffffffffffff168152602001908152602001600020600084815260200190815260200160002054905080600660008773ffffffffffffffffffffffffffffffffffffffff1673ffffffffffffffffffffffffffffffffffffffff168152602001908152602001600020600084815260200190815260200160002081905550816007600083815260200190815260200160002081905550505b6007600084815260200190815260200160002060009055600660008573ffffffffffffffffffffffffffffffffffffffff1673ffffffffffffffffffffffffffffffffffffffff16815260200190815260200160002060008381526020019081526020016000206000905550505050565b60006001600880549050612f869190614f0d565b9050600060096000848152602001908152602001600020549050600060088381548110612fb657612fb5614397565b5b906000526020600020015490508060088381548110612fd857612fd7614397565b5b90600052602060002001819055508160096000838152602001908152602001600020819055506009600085815260200190815260200160002060009055600880548061302757613026615343565b5b6001900381819060005260206000200160009055905550505050565b600061304e8361119b565b905081600660008573ffffffffffffffffffffffffffffffffffffffff1673ffffffffffffffffffffffffffffffffffffffff168152602001908152602001600020600083815260200190815260200160002081905550806007600084815260200190815260200160002081905550505050565b600073ffffffffffffffffffffffffffffffffffffffff168273ffffffffffffffffffffffffffffffffffffffff161415613132576040517f08c379a0000000000000000000000000000000000000000000000000000000008152600401613129906153be565b60405180910390fd5b61313b81611e04565b1561317b576040517f08c379a00000000000000000000000000000000000000000000000000000000081526004016131729061542a565b60405180910390fd5b6131876000838361284e565b6001600360008473ffffffffffffffffffffffffffffffffffffffff1673ffffffffffffffffffffffffffffffffffffffff16815260200190815260200160002060008282546131d79190614931565b92505081905550816002600083815260200190815260200160002060006101000a81548173ffffffffffffffffffffffffffffffffffffffff021916908373ffffffffffffffffffffffffffffffffffffffff160217905550808273ffffffffffffffffffffffffffffffffffffffff16600073ffffffffffffffffffffffffffffffffffffffff167fddf252ad1be2c89b69c2b068fc378daa952ba7f163c4a11628f55a4df523b3ef60405160405180910390a45050565b600080823b905060008111915050919050565b5080546132af9061401f565b6000825580601f106132c157506132e0565b601f0160209004906000526020600020908101906132df9190613369565b5b50565b8280546132ef9061401f565b90600052602060002090601f0160209004810192826133115760008555613358565b82601f1061332a57805160ff1916838001178555613358565b82800160010185558215613358579182015b8281111561335757825182559160200191906001019061333c565b5b5090506133659190613369565b5090565b5b8082111561338257600081600090555060010161336a565b5090565b6000604051905090565b600080fd5b600080fd5b60007fffffffff0000000000000000000000000000000000000000000000000000000082169050919050565b6133cf8161339a565b81146133da57600080fd5b50565b6000813590506133ec816133c6565b92915050565b60006020828403121561340857613407613390565b5b6000613416848285016133dd565b91505092915050565b60008115159050919050565b6134348161341f565b82525050565b600060208201905061344f600083018461342b565b92915050565b600081519050919050565b600082825260208201905092915050565b60005b8381101561348f578082015181840152602081019050613474565b8381111561349e576000848401525b50505050565b6000601f19601f8301169050919050565b60006134c082613455565b6134ca8185613460565b93506134da818560208601613471565b6134e3816134a4565b840191505092915050565b6000602082019050818103600083015261350881846134b5565b905092915050565b6000819050919050565b61352381613510565b82525050565b600060208201905061353e600083018461351a565b92915050565b61354d81613510565b811461355857600080fd5b50565b60008135905061356a81613544565b92915050565b60006020828403121561358657613585613390565b5b60006135948482850161355b565b91505092915050565b600073ffffffffffffffffffffffffffffffffffffffff82169050919050565b60006135c88261359d565b9050919050565b6135d8816135bd565b82525050565b60006020820190506135f360008301846135cf565b92915050565b613602816135bd565b811461360d57600080fd5b50565b60008135905061361f816135f9565b92915050565b6000806040838503121561363c5761363b613390565b5b600061364a85828601613610565b925050602061365b8582860161355b565b9150509250929050565b600080fd5b7f4e487b7100000000000000000000000000000000000000000000000000000000600052604160045260246000fd5b6136a2826134a4565b810181811067ffffffffffffffff821117156136c1576136c061366a565b5b80604052505050565b60006136d4613386565b90506136e08282613699565b919050565b600067ffffffffffffffff821115613700576136ff61366a565b5b602082029050602081019050919050565b600080fd5b6000613729613724846136e5565b6136ca565b9050808382526020820190506020840283018581111561374c5761374b613711565b5b835b818110156137755780613761888261355b565b84526020840193505060208101905061374e565b5050509392505050565b600082601f83011261379457613793613665565b5b81356137a4848260208601613716565b91505092915050565b600067ffffffffffffffff8211156137c8576137c761366a565b5b602082029050602081019050919050565b60006137ec6137e7846137ad565b6136ca565b9050808382526020820190506020840283018581111561380f5761380e613711565b5b835b8181101561383857806138248882613610565b845260208401935050602081019050613811565b5050509392505050565b600082601f83011261385757613856613665565b5b81356138678482602086016137d9565b91505092915050565b600067ffffffffffffffff82111561388b5761388a61366a565b5b602082029050602081019050919050565b600080fd5b600067ffffffffffffffff8211156138bc576138bb61366a565b5b6138c5826134a4565b9050602081019050919050565b82818337600083830152505050565b60006138f46138ef846138a1565b6136ca565b9050828152602081018484840111156139105761390f61389c565b5b61391b8482856138d2565b509392505050565b600082601f83011261393857613937613665565b5b81356139488482602086016138e1565b91505092915050565b600061396461395f84613870565b6136ca565b9050808382526020820190506020840283018581111561398757613986613711565b5b835b818110156139ce57803567ffffffffffffffff8111156139ac576139ab613665565b5b8086016139b98982613923565b85526020850194505050602081019050613989565b5050509392505050565b600082601f8301126139ed576139ec613665565b5b81356139fd848260208601613951565b91505092915050565b60008060008060808587031215613a2057613a1f613390565b5b600085013567ffffffffffffffff811115613a3e57613a3d613395565b5b613a4a8782880161377f565b945050602085013567ffffffffffffffff811115613a6b57613a6a613395565b5b613a7787828801613842565b935050604085013567ffffffffffffffff811115613a9857613a97613395565b5b613aa48782880161377f565b925050606085013567ffffffffffffffff811115613ac557613ac4613395565b5b613ad1878288016139d8565b91505092959194509250565b600080600060608486031215613af657613af5613390565b5b6000613b0486828701613610565b9350506020613b1586828701613610565b9250506040613b268682870161355b565b9150509250925092565b600060208284031215613b4657613b45613390565b5b6000613b5484828501613610565b91505092915050565b6000613b688261359d565b9050919050565b613b7881613b5d565b8114613b8357600080fd5b50565b600081359050613b9581613b6f565b92915050565b600080fd5b600060a08284031215613bb657613bb5613b9b565b5b81905092915050565b60008060408385031215613bd657613bd5613390565b5b6000613be485828601613b86565b925050602083013567ffffffffffffffff811115613c0557613c04613395565b5b613c1185828601613ba0565b9150509250929050565b6000819050919050565b613c2e81613c1b565b8114613c3957600080fd5b50565b600081359050613c4b81613c25565b92915050565b600067ffffffffffffffff821115613c6c57613c6b61366a565b5b613c75826134a4565b9050602081019050919050565b6000613c95613c9084613c51565b6136ca565b905082815260208101848484011115613cb157613cb061389c565b5b613cbc8482856138d2565b509392505050565b600082601f830112613cd957613cd8613665565b5b8135613ce9848260208601613c82565b91505092915050565b60008060408385031215613d0957613d08613390565b5b6000613d1785828601613c3c565b925050602083013567ffffffffffffffff811115613d3857613d37613395565b5b613d4485828601613cc4565b9150509250929050565b600080600060608486031215613d6757613d66613390565b5b6000613d758682870161355b565b9350506020613d868682870161355b565b925050604084013567ffffffffffffffff811115613da757613da6613395565b5b613db386828701613923565b9150509250925092565b613dc681613c1b565b82525050565b6000602082019050613de16000830184613dbd565b92915050565b613df08161341f565b8114613dfb57600080fd5b50565b600081359050613e0d81613de7565b92915050565b60008060408385031215613e2a57613e29613390565b5b6000613e3885828601613610565b9250506020613e4985828601613dfe565b9150509250929050565b60008060008060808587031215613e6d57613e6c613390565b5b6000613e7b8782880161355b565b9450506020613e8c87828801613610565b9350506040613e9d8782880161355b565b925050606085013567ffffffffffffffff811115613ebe57613ebd613395565b5b613eca87828801613923565b91505092959194509250565b60008060008060808587031215613ef057613eef613390565b5b6000613efe87828801613610565b9450506020613f0f87828801613610565b9350506040613f208782880161355b565b925050606085013567ffffffffffffffff811115613f4157613f40613395565b5b613f4d87828801613cc4565b91505092959194509250565b613f6281613b5d565b82525050565b6000602082019050613f7d6000830184613f59565b92915050565b60008060408385031215613f9a57613f99613390565b5b6000613fa885828601613610565b9250506020613fb985828601613610565b9150509250929050565b600060208284031215613fd957613fd8613390565b5b6000613fe784828501613c3c565b91505092915050565b7f4e487b7100000000000000000000000000000000000000000000000000000000600052602260045260246000fd5b6000600282049050600182168061403757607f821691505b6020821081141561404b5761404a613ff0565b5b50919050565b7f4552433732313a20617070726f76656420717565727920666f72206e6f6e657860008201527f697374656e7420746f6b656e0000000000000000000000000000000000000000602082015250565b60006140ad602c83613460565b91506140b882614051565b604082019050919050565b600060208201905081810360008301526140dc816140a0565b9050919050565b7f4552433732313a20617070726f76616c20746f2063757272656e74206f776e6560008201527f7200000000000000000000000000000000000000000000000000000000000000602082015250565b600061413f602183613460565b915061414a826140e3565b604082019050919050565b6000602082019050818103600083015261416e81614132565b9050919050565b7f4552433732313a20617070726f76652063616c6c6572206973206e6f74206f7760008201527f6e6572206e6f7220617070726f76656420666f7220616c6c0000000000000000602082015250565b60006141d1603883613460565b91506141dc82614175565b604082019050919050565b60006020820190508181036000830152614200816141c4565b9050919050565b7f4f776e61626c653a2063616c6c6572206973206e6f7420746865206f776e6572600082015250565b600061423d602083613460565b915061424882614207565b602082019050919050565b6000602082019050818103600083015261426c81614230565b9050919050565b7f746f6b656e49447320616e642063726561746f727320617265206e6f74206d6960008201527f736d617463686564000000000000000000000000000000000000000000000000602082015250565b60006142cf602883613460565b91506142da82614273565b604082019050919050565b600060208201905081810360008301526142fe816142c2565b9050919050565b7f746f6b656e49447320616e6420746f6b656e55524920617265206e6f74206d6960008201527f736d617463686564000000000000000000000000000000000000000000000000602082015250565b6000614361602883613460565b915061436c82614305565b604082019050919050565b6000602082019050818103600083015261439081614354565b9050919050565b7f4e487b7100000000000000000000000000000000000000000000000000000000600052603260045260246000fd5b7f726f79616c697479206f66206372656174657220697320746f6f206869676800600082015250565b60006143fc601f83613460565b9150614407826143c6565b602082019050919050565b6000602082019050818103600083015261442b816143ef565b9050919050565b7f4e487b7100000000000000000000000000000000000000000000000000000000600052601160045260246000fd5b600061446c82613510565b91507fffffffffffffffffffffffffffffffffffffffffffffffffffffffffffffffff82141561449f5761449e614432565b5b600182019050919050565b7f4552433732313a207472616e736665722063616c6c6572206973206e6f74206f60008201527f776e6572206e6f7220617070726f766564000000000000000000000000000000602082015250565b6000614506603183613460565b9150614511826144aa565b604082019050919050565b60006020820190508181036000830152614535816144f9565b9050919050565b7f455243373231456e756d657261626c653a206f776e657220696e646578206f7560008201527f74206f6620626f756e6473000000000000000000000000000000000000000000602082015250565b6000614598602b83613460565b91506145a38261453c565b604082019050919050565b600060208201905081810360008301526145c78161458b565b9050919050565b7f63616c6c6572206973206e6f7420746f6b656e206f776e657200000000000000600082015250565b6000614604601983613460565b915061460f826145ce565b602082019050919050565b60006020820190508181036000830152614633816145f7565b9050919050565b7f455243373231456e756d657261626c653a20676c6f62616c20696e646578206f60008201527f7574206f6620626f756e64730000000000000000000000000000000000000000602082015250565b6000614696602c83613460565b91506146a18261463a565b604082019050919050565b600060208201905081810360008301526146c581614689565b9050919050565b7f4552433732313a206f776e657220717565727920666f72206e6f6e657869737460008201527f656e7420746f6b656e0000000000000000000000000000000000000000000000602082015250565b6000614728602983613460565b9150614733826146cc565b604082019050919050565b600060208201905081810360008301526147578161471b565b9050919050565b7f4552433732313a2062616c616e636520717565727920666f7220746865207a6560008201527f726f206164647265737300000000000000000000000000000000000000000000602082015250565b60006147ba602a83613460565b91506147c58261475e565b604082019050919050565b600060208201905081810360008301526147e9816147ad565b9050919050565b7f54686973206e6f6e636520616c726561647920646f6e65000000000000000000600082015250565b6000614826601783613460565b9150614831826147f0565b602082019050919050565b6000602082019050818103600083015261485581614819565b9050919050565b600080fd5b600080fd5b600080fd5b600080833560016020038436030381126148885761488761485c565b5b80840192508235915067ffffffffffffffff8211156148aa576148a9614861565b5b6020830192506001820236038313156148c6576148c5614866565b5b509250929050565b600080833560016020038436030381126148eb576148ea61485c565b5b80840192508235915067ffffffffffffffff82111561490d5761490c614861565b5b60208301925060018202360383131561492957614928614866565b5b509250929050565b600061493c82613510565b915061494783613510565b9250827fffffffffffffffffffffffffffffffffffffffffffffffffffffffffffffffff0382111561497c5761497b614432565b5b828201905092915050565b7f5369676e617475726520696e76616c6964206f7220756e617574686f72697a6560008201527f6400000000000000000000000000000000000000000000000000000000000000602082015250565b60006149e3602183613460565b91506149ee82614987565b604082019050919050565b60006020820190508181036000830152614a12816149d6565b9050919050565b7f496e73756666696369656e742066756e647320746f2072656465656d00000000600082015250565b6000614a4f601c83613460565b9150614a5a82614a19565b602082019050919050565b60006020820190508181036000830152614a7e81614a42565b9050919050565b600060ff82169050919050565b614a9b81614a85565b82525050565b6000608082019050614ab66000830187613dbd565b614ac36020830186614a92565b614ad06040830185613dbd565b614add6060830184613dbd565b95945050505050565b6000819050919050565b614b01614afc82613510565b614ae6565b82525050565b600081905092915050565b6000614b1d82613455565b614b278185614b07565b9350614b37818560208601613471565b80840191505092915050565b6000614b4f8286614af0565b602082019150614b5f8285614af0565b602082019150614b6f8284614b12565b9150819050949350505050565b7f45524337323155524953746f726167653a2055524920717565727920666f722060008201527f6e6f6e6578697374656e7420746f6b656e000000000000000000000000000000602082015250565b6000614bd8603183613460565b9150614be382614b7c565b604082019050919050565b60006020820190508181036000830152614c0781614bcb565b9050919050565b6000614c1a8285614b12565b9150614c268284614b12565b91508190509392505050565b7f4f776e61626c653a206e6577206f776e657220697320746865207a65726f206160008201527f6464726573730000000000000000000000000000000000000000000000000000602082015250565b6000614c8e602683613460565b9150614c9982614c32565b604082019050919050565b60006020820190508181036000830152614cbd81614c81565b9050919050565b7f19457468657265756d205369676e6564204d6573736167653a0a333200000000600082015250565b6000614cfa601c83614b07565b9150614d0582614cc4565b601c82019050919050565b6000819050919050565b614d2b614d2682613c1b565b614d10565b82525050565b6000614d3c82614ced565b9150614d488284614d1a565b60208201915081905092915050565b7f4552433732313a206f70657261746f7220717565727920666f72206e6f6e657860008201527f697374656e7420746f6b656e0000000000000000000000000000000000000000602082015250565b6000614db3602c83613460565b9150614dbe82614d57565b604082019050919050565b60006020820190508181036000830152614de281614da6565b9050919050565b7f4552433732313a207472616e73666572206f6620746f6b656e2074686174206960008201527f73206e6f74206f776e0000000000000000000000000000000000000000000000602082015250565b6000614e45602983613460565b9150614e5082614de9565b604082019050919050565b60006020820190508181036000830152614e7481614e38565b9050919050565b7f4552433732313a207472616e7366657220746f20746865207a65726f2061646460008201527f7265737300000000000000000000000000000000000000000000000000000000602082015250565b6000614ed7602483613460565b9150614ee282614e7b565b604082019050919050565b60006020820190508181036000830152614f0681614eca565b9050919050565b6000614f1882613510565b9150614f2383613510565b925082821015614f3657614f35614432565b5b828203905092915050565b7f45524337323155524953746f726167653a2055524920736574206f66206e6f6e60008201527f6578697374656e7420746f6b656e000000000000000000000000000000000000602082015250565b6000614f9d602e83613460565b9150614fa882614f41565b604082019050919050565b60006020820190508181036000830152614fcc81614f90565b9050919050565b7f696e76616c6964207369676e6174757265206c656e6774680000000000000000600082015250565b6000615009601883613460565b915061501482614fd3565b602082019050919050565b6000602082019050818103600083015261503881614ffc565b9050919050565b7f4552433732313a20617070726f766520746f2063616c6c657200000000000000600082015250565b6000615075601983613460565b91506150808261503f565b602082019050919050565b600060208201905081810360008301526150a481615068565b9050919050565b7f4552433732313a207472616e7366657220746f206e6f6e20455243373231526560008201527f63656976657220696d706c656d656e7465720000000000000000000000000000602082015250565b6000615107603283613460565b9150615112826150ab565b604082019050919050565b60006020820190508181036000830152615136816150fa565b9050919050565b7f4552433732314d657461646174613a2055524920717565727920666f72206e6f60008201527f6e6578697374656e7420746f6b656e0000000000000000000000000000000000602082015250565b6000615199602f83613460565b91506151a48261513d565b604082019050919050565b600060208201905081810360008301526151c88161518c565b9050919050565b600081519050919050565b600082825260208201905092915050565b60006151f6826151cf565b61520081856151da565b9350615210818560208601613471565b615219816134a4565b840191505092915050565b600060808201905061523960008301876135cf565b61524660208301866135cf565b615253604083018561351a565b818103606083015261526581846151eb565b905095945050505050565b60008151905061527f816133c6565b92915050565b60006020828403121561529b5761529a613390565b5b60006152a984828501615270565b91505092915050565b7f4e487b7100000000000000000000000000000000000000000000000000000000600052601260045260246000fd5b60006152ec82613510565b91506152f783613510565b925082615307576153066152b2565b5b828204905092915050565b600061531d82613510565b915061532883613510565b925082615338576153376152b2565b5b828206905092915050565b7f4e487b7100000000000000000000000000000000000000000000000000000000600052603160045260246000fd5b7f4552433732313a206d696e7420746f20746865207a65726f2061646472657373600082015250565b60006153a8602083613460565b91506153b382615372565b602082019050919050565b600060208201905081810360008301526153d78161539b565b9050919050565b7f4552433732313a20746f6b656e20616c7265616479206d696e74656400000000600082015250565b6000615414601c83613460565b915061541f826153de565b602082019050919050565b6000602082019050818103600083015261544381615407565b905091905056fea264697066735822122022b47549b09ac845786293c4f3b630ed00a5eda325e8f83503a947a3c02a92af64736f6c634300080b0033",
  "immutableReferences": {},
  "source": "// SPDX-License-Identifier: MIT\n\npragma solidity ^0.8.0;\n\nimport \"@openzeppelin/contracts/token/ERC721/ERC721.sol\";\nimport \"@openzeppelin/contracts/token/ERC721/extensions/ERC721Enumerable.sol\";\nimport \"@openzeppelin/contracts/access/Ownable.sol\";\nimport \"@openzeppelin/contracts/utils/Strings.sol\";\nimport \"@openzeppelin/contracts/token/ERC721/extensions/ERC721URIStorage.sol\";\nimport \"@openzeppelin/contracts/utils/cryptography/ECDSA.sol\";\nimport \"@openzeppelin/contracts/utils/cryptography/draft-EIP712.sol\";\n\ncontract BLEUFINFT is ERC721Enumerable, Ownable, EIP712 {\n    struct Fee {\n        address payable recipient;\n        uint256 value;\n    }\n\n    mapping(uint256 => bool) public mintedNonce;\n\n    uint256 public nonceCount;\n\n    uint256 private tokenCount;\n\n    // tokenId => royality percetage\n    mapping(uint256 => uint256) public royalities;\n\n    // tokenId => Creator\n    mapping(uint256 => address payable) public creators;\n\n    // address => tokens created\n    mapping(address => uint256[]) public tokensPerCreator;\n    using Strings for uint256;\n\n    // Optional mapping for token URIs\n    mapping(uint256 => string) private _tokenURIs;\n\n    string private constant SIGNING_DOMAIN = \"LazyNFT-Voucher\";\n    string private constant SIGNATURE_VERSION = \"1\";\n\n    uint256 public maximumRoyality;\n\n    mapping(address => uint256) pendingWithdrawalsCreator;\n\n    constructor()\n        ERC721(\"BLEUFI NFT\", \"BLEUFINFT\")\n        EIP712(SIGNING_DOMAIN, SIGNATURE_VERSION)\n    {\n        setmaximumRoyality(1000);\n    }\n\n    // Structure to hold NftVoucher details\n    struct NftVoucher {\n        uint256 vNonce;\n        uint256 minPrice;\n        string tokenUri;\n        bytes signature;\n        uint256 royality;\n    }\n\n    /**\n     * @dev This function will set maxRoyaltiy , access type is onlyOwner\n     * @notice This Function will set maxRoyaltiy, minter should input royality under maxRoyaltiy\n     * @param _maxroyality Uint input value.\n     */\n    function setmaximumRoyality(uint256 _maxroyality) public onlyOwner {\n        maximumRoyality = _maxroyality;\n    }\n\n    /**\n     * @dev This function will use to mint NFT which have NFT voaucher and signature genrated from frontend\n     * @notice This function will use to mint NFT /\n       which is created from frontend the redeemer redem this NFT by passing the required agrs.\n     * @param creator address of  voucher creator.\n     * @param voucher enter the voucher  as tuple [id,price,uri,signature,royality]. \n     */\n    function LazyMint(address payable creator, NftVoucher calldata voucher)\n        public\n        payable\n        returns (uint256)\n    {\n        require(\n            mintedNonce[voucher.vNonce] == false,\n            \"This nonce already done\"\n        );\n        // make sure signature is valid and get the address of the signer\n        bytes32 messageHash = getMessageHash(\n            voucher.vNonce,\n            voucher.minPrice,\n            voucher.tokenUri\n        );\n\n        bytes32 ethSignedMessageHash = getEthSignedMessageHash(messageHash);\n\n        address signer = recoverSigner(ethSignedMessageHash, voucher.signature);\n        tokenCount = tokenCount + 1;\n        creators[tokenCount] = creator;\n\n        // make sure that the signer is authorized to mint NFTs\n        require(creator == signer, \"Signature invalid or unauthorized\");\n\n        // make sure that the redeemer is paying enough to cover the buyer's cost\n        require(msg.value >= voucher.minPrice, \"Insufficient funds to redeem\");\n        require(\n            voucher.royality <= maximumRoyality,\n            \"royality of creater is too high\"\n        );\n\n        // first assign the token to the signer, to establish provenance on-chain\n\n        _safeMint(signer, tokenCount);\n\n        royalities[tokenCount] = voucher.royality;\n        _setTokenURI(tokenCount, voucher.tokenUri);\n        // transfer the token to the redeemer\n        _transfer(signer, msg.sender, tokenCount);\n        creator.transfer(msg.value);\n        mintedNonce[voucher.vNonce] = true;\n        nonceCount = nonceCount + 1;\n        // record payment to signer's withdrawal balance\n        // pendingWithdrawalsCreator[signer] += msg.value;\n\n        return tokenCount;\n    }\n\n    /**\n     * @dev This function will use to Buy NFT / \n       which have NFT voaucher and signature genrated from frontend by seller\n     * @notice This function will use to Buy NFT /\n       which is created from frontend the buyer buy this NFT by passing the required agrs.\n     * @param seller address of  voucher seller.\n     * @param voucher enter the voucher  as tuple [id,price,uri,signature,royality]. \n     */\n\n    /// @notice Returns the chain id of the current blockchain.\n    /// @dev This is used to workaround an issue with ganache returning different values from the on-chain chainid() function and\n    ///  the eth_chainId RPC method. See https://github.com/protocol/nft-website/issues/121 for context.\n    function getChainID() external view returns (uint256) {\n        uint256 id;\n        assembly {\n            id := chainid()\n        }\n        return id;\n    }\n\n    function getMessageHash(\n        uint256 _nonce,\n        uint256 minPrice,\n        string memory tokenUri\n    ) public pure returns (bytes32) {\n        return keccak256(abi.encodePacked(_nonce, minPrice, tokenUri));\n    }\n\n    function getEthSignedMessageHash(bytes32 _messageHash)\n        public\n        pure\n        returns (bytes32)\n    {\n        /*\n        Signature is produced by signing a keccak256 hash with the following format:\n        \"\\x19Ethereum Signed Message\\n\" + len(msg) + msg\n        */\n        return\n            keccak256(\n                abi.encodePacked(\n                    \"\\x19Ethereum Signed Message:\\n32\",\n                    _messageHash\n                )\n            );\n    }\n\n    function recoverSigner(\n        bytes32 _ethSignedMessageHash,\n        bytes memory _signature\n    ) public pure returns (address) {\n        (bytes32 r, bytes32 s, uint8 v) = splitSignature(_signature);\n\n        return ecrecover(_ethSignedMessageHash, v, r, s);\n    }\n\n    function splitSignature(bytes memory sig)\n        internal\n        pure\n        returns (\n            bytes32 r,\n            bytes32 s,\n            uint8 v\n        )\n    {\n        require(sig.length == 65, \"invalid signature length\");\n\n        assembly {\n            /*\n            First 32 bytes stores the length of the signature\n\n            add(sig, 32) = pointer of sig + 32\n            effectively, skips first 32 bytes of signature\n\n            mload(p) loads next 32 bytes starting at the memory address p into memory\n            */\n\n            // first 32 bytes, after the length prefix\n            r := mload(add(sig, 32))\n            // second 32 bytes\n            s := mload(add(sig, 64))\n            // final byte (first byte of the next 32 bytes)\n            v := byte(0, mload(add(sig, 96)))\n        }\n\n        // implicitly return (r, s, v)\n    }\n\n    /**\n     * @dev See {IERC721Metadata-tokenURI}.\n     */\n\n    function tokenURI(uint256 tokenId)\n        public\n        view\n        virtual\n        override\n        returns (string memory)\n    {\n        require(\n            _exists(tokenId),\n            \"ERC721URIStorage: URI query for nonexistent token\"\n        );\n\n        string memory _tokenURI = _tokenURIs[tokenId];\n        string memory base = _baseURI();\n\n        // If there is no base URI, return the token URI.\n        if (bytes(base).length == 0) {\n            return _tokenURI;\n        }\n        // If both are set, concatenate the baseURI and tokenURI (via abi.encodePacked).\n        if (bytes(_tokenURI).length > 0) {\n            return string(abi.encodePacked(base, _tokenURI));\n        }\n\n        return super.tokenURI(tokenId);\n    }\n\n    /**\n     * @dev Sets `_tokenURI` as the tokenURI of `tokenId`.\n     *\n     * Requirements:\n     *\n     * - `tokenId` must exist.\n     */\n    function _setTokenURI(uint256 tokenId, string memory _tokenURI)\n        internal\n        virtual\n    {\n        require(\n            _exists(tokenId),\n            \"ERC721URIStorage: URI set of nonexistent token\"\n        );\n        _tokenURIs[tokenId] = _tokenURI;\n    }\n\n    /**\n     * @dev Destroys `tokenId`.\n     * The approval is cleared when the token is burned.\n     *\n     * Requirements:\n     *\n     * - `tokenId` must exist.\n     *\n     * Emits a {Transfer} event.\n     */\n    function _burn(uint256 tokenId) internal virtual override {\n        super._burn(tokenId);\n\n        if (bytes(_tokenURIs[tokenId]).length != 0) {\n            delete _tokenURIs[tokenId];\n        }\n    }\n\n    function burn(uint256 tokenId) public {\n        require(ownerOf(tokenId) == msg.sender, \"caller is not token owner\");\n        _burn(tokenId);\n    }\n\n    /**\n     * @dev This function will use mint normal NFTs\n     * @notice This function will use mint normal NFTs /\n        Minter mint  this NFT by passing the required agrs.\n     * @param _id  tokenId\n     * @param _to reciver address. \n     * @param _royality creater royality. \n     * @param _tokenURI  token URI. \n     */\n    function mint(\n        uint256 _id,\n        address _to,\n        uint256 _royality,\n        string memory _tokenURI\n    ) public {\n        require(\n            _royality <= maximumRoyality,\n            \"royality of creater is too high\"\n        );\n        mint_(_to, _id, _royality);\n\n        _setTokenURI(_id, _tokenURI);\n    }\n\n    /**\n        * @dev This function will use mint multiple NFTs , only owner can call this function\n        * @notice This function will use mint  multiple NFTs /\n            owner need to  mint  this NFTs by passing the required agrs as array.\n        * @param _ids  tokenId array.\n        * @param _tos reciver address array. \n        * @param _royality creater royality array. \n        * @param _newTokenURIs  token URI array. \n     */\n    function mintAll(\n        uint256[] memory _ids,\n        address[] memory _tos,\n        uint256[] memory _royality,\n        string[] memory _newTokenURIs\n    ) public onlyOwner {\n        require(\n            _ids.length == _tos.length,\n            \"tokenIDs and creators are not mismatched\"\n        );\n        require(\n            _ids.length == _newTokenURIs.length,\n            \"tokenIDs and tokenURI are not mismatched\"\n        );\n\n        for (uint256 i = 0; i < _ids.length; i++) {\n            require(\n                _royality[i] <= maximumRoyality,\n                \"royality of creater is too high\"\n            );\n            mint(_ids[i], _tos[i], _royality[i], _newTokenURIs[i]);\n            royalities[_ids[i]] = _royality[i];\n            creators[_ids[i]] = payable(_tos[i]);\n            tokensPerCreator[_tos[i]].push(_ids[i]);\n        }\n    }\n\n    /**\n     * @dev mint `tokenId`.\n     * The approval is cleared when the token is mint.\n     *\n     * Requirements:\n     *\n     * - `tokenId` must  not be exist.\n     *\n     * Emits a {Transfer} event from zero address.\n     */\n    function mint_(\n        address to,\n        uint256 tokenId,\n        uint256 _royality\n    ) internal {\n        _safeMint(to, tokenId);\n        royalities[tokenId] = _royality;\n        creators[tokenId] = payable(msg.sender);\n        tokensPerCreator[msg.sender].push(tokenId);\n    }\n}\n",
  "sourcePath": "/home/dell/Desktop/Thoughtwin-Projects-Bc/NFT-pro/bleufinft/contracts/bleufinft.sol",
  "compiler": {
    "name": "solc",
    "version": "0.8.11+commit.d7f03943.Emscripten.clang"
  },
  "schemaVersion": "3.4.2",
  "updatedAt": "2022-02-03T14:49:44.463Z",
  "devdoc": {
    "kind": "dev",
    "methods": {
      "LazyMint(address,(uint256,uint256,string,bytes,uint256))": {
        "details": "This function will use to mint NFT which have NFT voaucher and signature genrated from frontend",
        "params": {
          "creator": "address of  voucher creator.",
          "voucher": "enter the voucher  as tuple [id,price,uri,signature,royality]. "
        }
      },
      "approve(address,uint256)": {
        "details": "See {IERC721-approve}."
      },
      "balanceOf(address)": {
        "details": "See {IERC721-balanceOf}."
      },
      "getApproved(uint256)": {
        "details": "See {IERC721-getApproved}."
      },
      "getChainID()": {
        "details": "This is used to workaround an issue with ganache returning different values from the on-chain chainid() function and  the eth_chainId RPC method. See https://github.com/protocol/nft-website/issues/121 for context."
      },
      "isApprovedForAll(address,address)": {
        "details": "See {IERC721-isApprovedForAll}."
      },
      "mint(uint256,address,uint256,string)": {
        "details": "This function will use mint normal NFTs",
        "params": {
          "_id": "tokenId",
          "_royality": "creater royality. ",
          "_to": "reciver address. ",
          "_tokenURI": "token URI. "
        }
      },
      "mintAll(uint256[],address[],uint256[],string[])": {
        "details": "This function will use mint multiple NFTs , only owner can call this function",
        "params": {
          "_ids": "tokenId array.",
          "_newTokenURIs": "token URI array. ",
          "_royality": "creater royality array. ",
          "_tos": "reciver address array. "
        }
      },
      "name()": {
        "details": "See {IERC721Metadata-name}."
      },
      "owner()": {
        "details": "Returns the address of the current owner."
      },
      "ownerOf(uint256)": {
        "details": "See {IERC721-ownerOf}."
      },
      "renounceOwnership()": {
        "details": "Leaves the contract without owner. It will not be possible to call `onlyOwner` functions anymore. Can only be called by the current owner. NOTE: Renouncing ownership will leave the contract without an owner, thereby removing any functionality that is only available to the owner."
      },
      "safeTransferFrom(address,address,uint256)": {
        "details": "See {IERC721-safeTransferFrom}."
      },
      "safeTransferFrom(address,address,uint256,bytes)": {
        "details": "See {IERC721-safeTransferFrom}."
      },
      "setApprovalForAll(address,bool)": {
        "details": "See {IERC721-setApprovalForAll}."
      },
      "setmaximumRoyality(uint256)": {
        "details": "This function will set maxRoyaltiy , access type is onlyOwner",
        "params": {
          "_maxroyality": "Uint input value."
        }
      },
      "supportsInterface(bytes4)": {
        "details": "See {IERC165-supportsInterface}."
      },
      "symbol()": {
        "details": "See {IERC721Metadata-symbol}."
      },
      "tokenByIndex(uint256)": {
        "details": "See {IERC721Enumerable-tokenByIndex}."
      },
      "tokenOfOwnerByIndex(address,uint256)": {
        "details": "See {IERC721Enumerable-tokenOfOwnerByIndex}."
      },
      "tokenURI(uint256)": {
        "details": "See {IERC721Metadata-tokenURI}."
      },
      "totalSupply()": {
        "details": "See {IERC721Enumerable-totalSupply}."
      },
      "transferFrom(address,address,uint256)": {
        "details": "See {IERC721-transferFrom}."
      },
      "transferOwnership(address)": {
        "details": "Transfers ownership of the contract to a new account (`newOwner`). Can only be called by the current owner."
      }
    },
    "version": 1
  },
  "userdoc": {
    "kind": "user",
    "methods": {
      "LazyMint(address,(uint256,uint256,string,bytes,uint256))": {
        "notice": "This function will use to mint NFT / which is created from frontend the redeemer redem this NFT by passing the required agrs."
      },
      "getChainID()": {
        "notice": "Returns the chain id of the current blockchain."
      },
      "mint(uint256,address,uint256,string)": {
        "notice": "This function will use mint normal NFTs / Minter mint  this NFT by passing the required agrs."
      },
      "mintAll(uint256[],address[],uint256[],string[])": {
        "notice": "This function will use mint  multiple NFTs / owner need to  mint  this NFTs by passing the required agrs as array."
      },
      "setmaximumRoyality(uint256)": {
        "notice": "This Function will set maxRoyaltiy, minter should input royality under maxRoyaltiy"
      }
    },
    "version": 1
  }
}